{
  "_format": "hh-sol-artifact-1",
  "contractName": "SeedProtocol",
  "sourceName": "contracts/SeedProtocol.sol",
  "abi": [
    {
      "anonymous": false,
      "inputs": [
        {
          "components": [
            {
              "internalType": "bytes32",
              "name": "schemaUid",
              "type": "bytes32"
            },
            {
              "internalType": "bytes32",
              "name": "attestationUid",
              "type": "bytes32"
            }
          ],
          "indexed": false,
          "internalType": "struct CreatedAttestationResult",
          "name": "result",
          "type": "tuple"
        }
      ],
      "name": "CreatedAttestation",
      "type": "event"
    },
    {
      "anonymous": false,
      "inputs": [
        {
          "indexed": false,
          "internalType": "uint8",
          "name": "version",
          "type": "uint8"
        }
      ],
      "name": "Initialized",
      "type": "event"
    },
    {
      "anonymous": false,
      "inputs": [
        {
          "indexed": true,
          "internalType": "address",
          "name": "previousOwner",
          "type": "address"
        },
        {
          "indexed": true,
          "internalType": "address",
          "name": "newOwner",
          "type": "address"
        }
      ],
      "name": "OwnershipTransferred",
      "type": "event"
    },
    {
      "anonymous": false,
      "inputs": [
        {
          "indexed": false,
          "internalType": "bytes",
          "name": "returnedDataFromEAS",
          "type": "bytes"
        }
      ],
      "name": "SeedPublished",
      "type": "event"
    },
    {
      "inputs": [
        {
          "internalType": "bytes32",
          "name": "schemaUid",
          "type": "bytes32"
        },
        {
          "internalType": "bool",
          "name": "revocable",
          "type": "bool"
        }
      ],
      "name": "createSeed",
      "outputs": [
        {
          "internalType": "bytes32",
          "name": "",
          "type": "bytes32"
        }
      ],
      "stateMutability": "payable",
      "type": "function"
    },
    {
      "inputs": [
        {
          "internalType": "bytes32",
          "name": "seedUid",
          "type": "bytes32"
        },
        {
          "internalType": "bytes32",
          "name": "versionSchemaUid",
          "type": "bytes32"
        }
      ],
      "name": "createVersion",
      "outputs": [
        {
          "internalType": "bytes32",
          "name": "",
          "type": "bytes32"
        }
      ],
      "stateMutability": "payable",
      "type": "function"
    },
    {
      "inputs": [],
      "name": "eas",
      "outputs": [
        {
          "internalType": "contract IEAS_SeedProtocol",
          "name": "",
          "type": "address"
        }
      ],
      "stateMutability": "view",
      "type": "function"
    },
    {
      "inputs": [
        {
          "internalType": "address",
          "name": "_eas",
          "type": "address"
        }
      ],
      "name": "initialize",
      "outputs": [],
      "stateMutability": "nonpayable",
      "type": "function"
    },
    {
      "inputs": [
        {
          "components": [
            {
              "internalType": "string",
              "name": "localId",
              "type": "string"
            },
            {
              "internalType": "bytes32",
              "name": "seedUid",
              "type": "bytes32"
            },
            {
              "internalType": "bytes32",
              "name": "seedSchemaUid",
              "type": "bytes32"
            },
            {
              "internalType": "bytes32",
              "name": "versionUid",
              "type": "bytes32"
            },
            {
              "internalType": "bytes32",
              "name": "versionSchemaUid",
              "type": "bytes32"
            },
            {
              "internalType": "bool",
              "name": "seedIsRevocable",
              "type": "bool"
            },
            {
              "components": [
                {
                  "internalType": "bytes32",
                  "name": "schema",
                  "type": "bytes32"
                },
                {
                  "components": [
                    {
                      "internalType": "address",
                      "name": "recipient",
                      "type": "address"
                    },
                    {
                      "internalType": "uint64",
                      "name": "expirationTime",
                      "type": "uint64"
                    },
                    {
                      "internalType": "bool",
                      "name": "revocable",
                      "type": "bool"
                    },
                    {
                      "internalType": "bytes32",
                      "name": "refUID",
                      "type": "bytes32"
                    },
                    {
                      "internalType": "bytes",
                      "name": "data",
                      "type": "bytes"
                    },
                    {
                      "internalType": "uint256",
                      "name": "value",
                      "type": "uint256"
                    }
                  ],
                  "internalType": "struct AttestationRequestData[]",
                  "name": "data",
                  "type": "tuple[]"
                }
              ],
              "internalType": "struct MultiAttestationRequest[]",
              "name": "listOfAttestations",
              "type": "tuple[]"
            },
            {
              "components": [
                {
                  "internalType": "string",
                  "name": "publishLocalId",
                  "type": "string"
                },
                {
                  "internalType": "bytes32",
                  "name": "propertySchemaUid",
                  "type": "bytes32"
                }
              ],
              "internalType": "struct PropertyToUpdateWithSeed[]",
              "name": "propertiesToUpdate",
              "type": "tuple[]"
            }
          ],
          "internalType": "struct PublishRequestData[]",
          "name": "requests",
          "type": "tuple[]"
        }
      ],
      "name": "multiPublish",
      "outputs": [
        {
          "internalType": "bytes32[]",
          "name": "",
          "type": "bytes32[]"
        }
      ],
      "stateMutability": "payable",
      "type": "function"
    },
    {
      "inputs": [],
      "name": "owner",
      "outputs": [
        {
          "internalType": "address",
          "name": "",
          "type": "address"
        }
      ],
      "stateMutability": "view",
      "type": "function"
    },
    {
      "inputs": [
        {
          "components": [
            {
              "internalType": "string",
              "name": "localId",
              "type": "string"
            },
            {
              "internalType": "bytes32",
              "name": "seedUid",
              "type": "bytes32"
            },
            {
              "internalType": "bytes32",
              "name": "seedSchemaUid",
              "type": "bytes32"
            },
            {
              "internalType": "bytes32",
              "name": "versionUid",
              "type": "bytes32"
            },
            {
              "internalType": "bytes32",
              "name": "versionSchemaUid",
              "type": "bytes32"
            },
            {
              "internalType": "bool",
              "name": "seedIsRevocable",
              "type": "bool"
            },
            {
              "components": [
                {
                  "internalType": "bytes32",
                  "name": "schema",
                  "type": "bytes32"
                },
                {
                  "components": [
                    {
                      "internalType": "address",
                      "name": "recipient",
                      "type": "address"
                    },
                    {
                      "internalType": "uint64",
                      "name": "expirationTime",
                      "type": "uint64"
                    },
                    {
                      "internalType": "bool",
                      "name": "revocable",
                      "type": "bool"
                    },
                    {
                      "internalType": "bytes32",
                      "name": "refUID",
                      "type": "bytes32"
                    },
                    {
                      "internalType": "bytes",
                      "name": "data",
                      "type": "bytes"
                    },
                    {
                      "internalType": "uint256",
                      "name": "value",
                      "type": "uint256"
                    }
                  ],
                  "internalType": "struct AttestationRequestData[]",
                  "name": "data",
                  "type": "tuple[]"
                }
              ],
              "internalType": "struct MultiAttestationRequest[]",
              "name": "listOfAttestations",
              "type": "tuple[]"
            },
            {
              "components": [
                {
                  "internalType": "string",
                  "name": "publishLocalId",
                  "type": "string"
                },
                {
                  "internalType": "bytes32",
                  "name": "propertySchemaUid",
                  "type": "bytes32"
                }
              ],
              "internalType": "struct PropertyToUpdateWithSeed[]",
              "name": "propertiesToUpdate",
              "type": "tuple[]"
            }
          ],
          "internalType": "struct PublishRequestData",
          "name": "request",
          "type": "tuple"
        }
      ],
      "name": "publish",
      "outputs": [
        {
          "internalType": "bytes32",
          "name": "",
          "type": "bytes32"
        },
        {
          "internalType": "bytes32",
          "name": "",
          "type": "bytes32"
        }
      ],
      "stateMutability": "payable",
      "type": "function"
    },
    {
      "inputs": [],
      "name": "renounceOwnership",
      "outputs": [],
      "stateMutability": "nonpayable",
      "type": "function"
    },
    {
      "inputs": [
        {
          "internalType": "address",
          "name": "newOwner",
          "type": "address"
        }
      ],
      "name": "transferOwnership",
      "outputs": [],
      "stateMutability": "nonpayable",
      "type": "function"
    }
  ],
  "bytecode": "0x608060405234801561001057600080fd5b50611426806100206000396000f3fe6080604052600436106100865760003560e01c80638150864d116100595780638150864d146100fb5780638da5cb5b14610133578063b71308c514610151578063c4d66de814610179578063f2fde38b1461019957600080fd5b806313e0c2631461008b57806331e19cb8146100b15780636240d6d9146100d1578063715018a6146100e4575b600080fd5b61009e610099366004610b4a565b6101b9565b6040519081526020015b60405180910390f35b6100c46100bf36600461105d565b610362565b6040516100a8919061110d565b61009e6100df366004611151565b610707565b3480156100f057600080fd5b506100f9610896565b005b34801561010757600080fd5b5060655461011b906001600160a01b031681565b6040516001600160a01b0390911681526020016100a8565b34801561013f57600080fd5b506033546001600160a01b031661011b565b61016461015f36600461117d565b6108aa565b604080519283526020830191909152016100a8565b34801561018557600080fd5b506100f96101943660046111b9565b610900565b3480156101a557600080fd5b506100f96101b43660046111b9565b610a25565b6000806040518060c0016040528060006001600160a01b0316815260200160006001600160401b031681526020016001151581526020018581526020018460405160200161020991815260200190565b60408051601f198184030181529181529082526000602092830181905281518083018352878152928301849052606554915163f17325e760e01b815293945091926001600160a01b039091169063f17325e79061026a90859060040161128f565b6020604051808303816000875af1158015610289573d6000803e3d6000fd5b505050506040513d601f19601f820116820180604052508101906102ad91906112b4565b90508061030b5760405162461bcd60e51b815260206004820152602160248201527f4661696c656420746f206372656174652076657273696f6e20776974682045416044820152605360f81b60648201526084015b60405180910390fd5b604080518082018252868152602090810183815282518881529051918101919091527fa57d11c94f1e88ae873c6c23f9e24e621b2784a18a279d12e276e5d25a9edd2591015b60405180910390a195945050505050565b6060600082516001600160401b0381111561037f5761037f610b6c565b6040519080825280602002602001820160405280156103a8578160200160208202803683370190505b50905060005b83518110156107005760008482815181106103cb576103cb6112cd565b602002602001015190506000806103e1836108aa565b9150915060005b8360c00151518110156104745760008460c00151828151811061040d5761040d6112cd565b6020026020010151905060005b81602001515181101561045f57838260200151828151811061043e5761043e6112cd565b60209081029190910101516060015280610457816112e3565b91505061041a565b5050808061046c906112e3565b9150506103e8565b5060e083015160005b81518110156105a957600082828151811061049a5761049a6112cd565b6020026020010151905060005b8a518110156105945760008b82815181106104c4576104c46112cd565b6020908102919091018101518051855180519084012081519190930120909250036105815760005b8160c001515181101561057f5760008260c001518281518110610511576105116112cd565b60200260200101519050846020015181600001510361056c5760408051602081018b905201604051602081830303815290604052816020015160008151811061055c5761055c6112cd565b6020026020010151608001819052505b5080610577816112e3565b9150506104ec565b505b508061058c816112e3565b9150506104a7565b505080806105a1906112e3565b91505061047d565b5060655460c085015160405160009283926001600160a01b03909116913491632256e48760e11b916105de919060240161130a565b60408051601f198184030181529181526020820180516001600160e01b03166001600160e01b031990941693909317909252905161061c91906113c1565b60006040518083038185875af1925050503d8060008114610659576040519150601f19603f3d011682016040523d82523d6000602084013e61065e565b606091505b5091509150816106b05760405162461bcd60e51b815260206004820152601760248201527f6d756c74694174746573742063616c6c206661696c65640000000000000000006044820152606401610302565b7f0d45697d4dddf6ac9e0e73fe65e9bfb17eddc0b95b092bb1a0cc24adde98a8dd816040516106df91906113dd565b60405180910390a150505050505080806106f8906112e3565b9150506103ae565b5092915050565b6000806040518060c0016040528060006001600160a01b0316815260200160006001600160401b0316815260200184151581526020016000801b81526020018560405160200161075991815260200190565b60408051601f198184030181529181529082526000602092830181905281518083018352888152928301849052606554915163f17325e760e01b815293945091926001600160a01b039091169063f17325e7906107ba90859060040161128f565b6020604051808303816000875af11580156107d9573d6000803e3d6000fd5b505050506040513d601f19601f820116820180604052508101906107fd91906112b4565b90508061084c5760405162461bcd60e51b815260206004820152601e60248201527f4661696c656420746f20637265617465207365656420776974682045415300006044820152606401610302565b604080518082018252878152602090810183815282518981529051918101919091527fa57d11c94f1e88ae873c6c23f9e24e621b2784a18a279d12e276e5d25a9edd259101610351565b61089e610a9e565b6108a86000610af8565b565b602081015160608201516000918291816108d3576108d085604001518660a00151610707565b91505b81158015906108e0575080155b156108f6576108f38286608001516101b9565b90505b9094909350915050565b600054610100900460ff16158080156109205750600054600160ff909116105b8061093a5750303b15801561093a575060005460ff166001145b61099d5760405162461bcd60e51b815260206004820152602e60248201527f496e697469616c697a61626c653a20636f6e747261637420697320616c72656160448201526d191e481a5b9a5d1a585b1a5e995960921b6064820152608401610302565b6000805460ff1916600117905580156109c0576000805461ff0019166101001790555b606580546001600160a01b0319166001600160a01b0384161790558015610a21576000805461ff0019169055604051600181527f7f26b83ff96e1f2b6a682f133852f6798a09c465da95921460cefb38474024989060200160405180910390a15b5050565b610a2d610a9e565b6001600160a01b038116610a925760405162461bcd60e51b815260206004820152602660248201527f4f776e61626c653a206e6577206f776e657220697320746865207a65726f206160448201526564647265737360d01b6064820152608401610302565b610a9b81610af8565b50565b6033546001600160a01b031633146108a85760405162461bcd60e51b815260206004820181905260248201527f4f776e61626c653a2063616c6c6572206973206e6f7420746865206f776e65726044820152606401610302565b603380546001600160a01b038381166001600160a01b0319831681179093556040519116919082907f8be0079c531659141344cd1fd0a4f28419497f9722a3daafe3b4186f6b6457e090600090a35050565b60008060408385031215610b5d57600080fd5b50508035926020909101359150565b634e487b7160e01b600052604160045260246000fd5b604080519081016001600160401b0381118282101715610ba457610ba4610b6c565b60405290565b60405160c081016001600160401b0381118282101715610ba457610ba4610b6c565b60405161010081016001600160401b0381118282101715610ba457610ba4610b6c565b604051601f8201601f191681016001600160401b0381118282101715610c1757610c17610b6c565b604052919050565b60006001600160401b03821115610c3857610c38610b6c565b5060051b60200190565b600082601f830112610c5357600080fd5b81356001600160401b03811115610c6c57610c6c610b6c565b610c7f601f8201601f1916602001610bef565b818152846020838601011115610c9457600080fd5b816020850160208301376000918101602001919091529392505050565b80358015158114610cc157600080fd5b919050565b80356001600160a01b0381168114610cc157600080fd5b600082601f830112610cee57600080fd5b610d00610cfb8335610c1f565b610bef565b82358082526020808301929160051b850101851015610d1e57600080fd5b602084015b6020853560051b860101811015610ebe576001600160401b038082351115610d4a57600080fd5b6040823587018803601f19011215610d6157600080fd5b610d69610b82565b823587016020810135825260400135821015610d8457600080fd5b82358701604081013501603f81018913610d9d57600080fd5b610dad610cfb6020830135610c1f565b602082810135808352908201919060051b83016040018b1015610dcf57600080fd5b604083015b6040602085013560051b850101811015610e9e578581351115610df657600080fd5b8035840160c0818e03603f19011215610e0e57600080fd5b610e16610baa565b610e2260408301610cc6565b8152606082013580891614610e3657600080fd5b60608201356020820152610e4c60808301610cb1565b604082015260a082013560608201528760c08301351115610e6c57600080fd5b610e7f8e604060c0850135850101610c42565b608082015260e0919091013560a0820152835260209283019201610dd4565b508060208501525050508085525050602083019250602081019050610d23565b50949350505050565b600082601f830112610ed857600080fd5b81356020610ee8610cfb83610c1f565b82815260059290921b84018101918181019086841115610f0757600080fd5b8286015b84811015610f855780356001600160401b0380821115610f2b5760008081fd5b908801906040828b03601f1901811315610f455760008081fd5b610f4d610b82565b8784013583811115610f5f5760008081fd5b610f6d8d8a83880101610c42565b82525092013586830152508352918301918301610f0b565b509695505050505050565b60006101008284031215610fa357600080fd5b610fab610bcc565b905081356001600160401b0380821115610fc457600080fd5b610fd085838601610c42565b83526020840135602084015260408401356040840152606084013560608401526080840135608084015261100660a08501610cb1565b60a084015260c084013591508082111561101f57600080fd5b61102b85838601610cdd565b60c084015260e084013591508082111561104457600080fd5b5061105184828501610ec7565b60e08301525092915050565b6000602080838503121561107057600080fd5b82356001600160401b038082111561108757600080fd5b818501915085601f83011261109b57600080fd5b81356110a9610cfb82610c1f565b81815260059190911b830184019084810190888311156110c857600080fd5b8585015b83811015611100578035858111156110e45760008081fd5b6110f28b89838a0101610f90565b8452509186019186016110cc565b5098975050505050505050565b6020808252825182820181905260009190848201906040850190845b8181101561114557835183529284019291840191600101611129565b50909695505050505050565b6000806040838503121561116457600080fd5b8235915061117460208401610cb1565b90509250929050565b60006020828403121561118f57600080fd5b81356001600160401b038111156111a557600080fd5b6111b184828501610f90565b949350505050565b6000602082840312156111cb57600080fd5b6111d482610cc6565b9392505050565b60005b838110156111f65781810151838201526020016111de565b50506000910152565b600081518084526112178160208601602086016111db565b601f01601f19169290920160200192915050565b60018060a01b0381511682526001600160401b036020820151166020830152604081015115156040830152606081015160608301526000608082015160c0608085015261127b60c08501826111ff565b60a093840151949093019390935250919050565b6020815281516020820152600060208301516040808401526111b1606084018261122b565b6000602082840312156112c657600080fd5b5051919050565b634e487b7160e01b600052603260045260246000fd5b60006001820161130357634e487b7160e01b600052601160045260246000fd5b5060010190565b602080825282518282018190526000919060409081850190600581811b8701840188860187805b858110156113b157603f198b85030187528251805185528901518985018990528051898601819052908a0190606081881b870181019190870190855b8181101561139b57605f1989850301835261138984865161122b565b948e01949350918d019160010161136d565b505050978a019794505091880191600101611331565b50919a9950505050505050505050565b600082516113d38184602087016111db565b9190910192915050565b6020815260006111d460208301846111ff56fea26469706673582212205787eadba756f5332093029c392d6088f7d267a3cff5262cba94f8f580bc64da64736f6c63430008130033",
  "linkReferences": {},
  "deployedLinkReferences": {}
}